{
  "contractName": "Student",
  "abi": [
    {
      "inputs": [],
      "stateMutability": "nonpayable",
      "type": "constructor"
    },
    {
      "inputs": [
        {
          "internalType": "uint256",
          "name": "",
          "type": "uint256"
        }
      ],
      "name": "students",
      "outputs": [
        {
          "internalType": "bytes32",
          "name": "studentId",
          "type": "bytes32"
        },
        {
          "internalType": "string",
          "name": "firstName",
          "type": "string"
        },
        {
          "internalType": "string",
          "name": "lastName",
          "type": "string"
        },
        {
          "internalType": "bool",
          "name": "isPassed",
          "type": "bool"
        },
        {
          "internalType": "enum Student.Course",
          "name": "course",
          "type": "uint8"
        },
        {
          "internalType": "enum Student.Status",
          "name": "status",
          "type": "uint8"
        }
      ],
      "stateMutability": "view",
      "type": "function"
    },
    {
      "inputs": [
        {
          "internalType": "bytes32",
          "name": "_studentId",
          "type": "bytes32"
        },
        {
          "internalType": "string",
          "name": "_firstName",
          "type": "string"
        },
        {
          "internalType": "string",
          "name": "_lastName",
          "type": "string"
        },
        {
          "internalType": "enum Student.Course",
          "name": "_course",
          "type": "uint8"
        },
        {
          "internalType": "enum Student.Status",
          "name": "_status",
          "type": "uint8"
        }
      ],
      "name": "create",
      "outputs": [],
      "stateMutability": "nonpayable",
      "type": "function"
    }
  ],
  "bytecode": "0x608060405234801561001057600080fd5b50610a07806100206000396000f3fe608060405234801561001057600080fd5b50600436106100365760003560e01c806306ead22e1461003b578063aec69c0314610070575b600080fd5b610055600480360381019061005091906104ea565b61008c565b604051610067969594939291906106a3565b60405180910390f35b61008a600480360381019061008591906108bd565b61020f565b005b6001818154811061009c57600080fd5b90600052602060002090600402016000915090508060000154908060010180546100c59061099f565b80601f01602080910402602001604051908101604052809291908181526020018280546100f19061099f565b801561013e5780601f106101135761010080835404028352916020019161013e565b820191906000526020600020905b81548152906001019060200180831161012157829003601f168201915b5050505050908060020180546101539061099f565b80601f016020809104026020016040519081016040528092919081815260200182805461017f9061099f565b80156101cc5780601f106101a1576101008083540402835291602001916101cc565b820191906000526020600020905b8154815290600101906020018083116101af57829003601f168201915b5050505050908060030160009054906101000a900460ff16908060030160019054906101000a900460ff16908060030160029054906101000a900460ff16905086565b61021761039e565b858160000181815250508481602001819052508381604001819052506000816060019015159081151581525050828160800190600281111561025c5761025b6105e4565b5b908160028111156102705761026f6105e4565b5b81525050818160a00190600381111561028c5761028b6105e4565b5b908160038111156102a05761029f6105e4565b5b8152505060018190806001815401808255809150506001900390600052602060002090600402016000909190919091506000820151816000015560208201518160010190805190602001906102f69291906103fd565b5060408201518160020190805190602001906103139291906103fd565b5060608201518160030160006101000a81548160ff02191690831515021790555060808201518160030160016101000a81548160ff0219169083600281111561035f5761035e6105e4565b5b021790555060a08201518160030160026101000a81548160ff0219169083600381111561038f5761038e6105e4565b5b02179055505050505050505050565b6040518060c00160405280600080191681526020016060815260200160608152602001600015158152602001600060028111156103de576103dd6105e4565b5b8152602001600060038111156103f7576103f66105e4565b5b81525090565b8280546104099061099f565b90600052602060002090601f01602090048101928261042b5760008555610472565b82601f1061044457805160ff1916838001178555610472565b82800160010185558215610472579182015b82811115610471578251825591602001919060010190610456565b5b50905061047f9190610483565b5090565b5b8082111561049c576000816000905550600101610484565b5090565b6000604051905090565b600080fd5b600080fd5b6000819050919050565b6104c7816104b4565b81146104d257600080fd5b50565b6000813590506104e4816104be565b92915050565b600060208284031215610500576104ff6104aa565b5b600061050e848285016104d5565b91505092915050565b6000819050919050565b61052a81610517565b82525050565b600081519050919050565b600082825260208201905092915050565b60005b8381101561056a57808201518184015260208101905061054f565b83811115610579576000848401525b50505050565b6000601f19601f8301169050919050565b600061059b82610530565b6105a5818561053b565b93506105b581856020860161054c565b6105be8161057f565b840191505092915050565b60008115159050919050565b6105de816105c9565b82525050565b7f4e487b7100000000000000000000000000000000000000000000000000000000600052602160045260246000fd5b60038110610624576106236105e4565b5b50565b600081905061063582610613565b919050565b600061064582610627565b9050919050565b6106558161063a565b82525050565b6004811061066c5761066b6105e4565b5b50565b600081905061067d8261065b565b919050565b600061068d8261066f565b9050919050565b61069d81610682565b82525050565b600060c0820190506106b86000830189610521565b81810360208301526106ca8188610590565b905081810360408301526106de8187610590565b90506106ed60608301866105d5565b6106fa608083018561064c565b61070760a0830184610694565b979650505050505050565b61071b81610517565b811461072657600080fd5b50565b60008135905061073881610712565b92915050565b600080fd5b600080fd5b7f4e487b7100000000000000000000000000000000000000000000000000000000600052604160045260246000fd5b6107808261057f565b810181811067ffffffffffffffff8211171561079f5761079e610748565b5b80604052505050565b60006107b26104a0565b90506107be8282610777565b919050565b600067ffffffffffffffff8211156107de576107dd610748565b5b6107e78261057f565b9050602081019050919050565b82818337600083830152505050565b6000610816610811846107c3565b6107a8565b90508281526020810184848401111561083257610831610743565b5b61083d8482856107f4565b509392505050565b600082601f83011261085a5761085961073e565b5b813561086a848260208601610803565b91505092915050565b6003811061088057600080fd5b50565b60008135905061089281610873565b92915050565b600481106108a557600080fd5b50565b6000813590506108b781610898565b92915050565b600080600080600060a086880312156108d9576108d86104aa565b5b60006108e788828901610729565b955050602086013567ffffffffffffffff811115610908576109076104af565b5b61091488828901610845565b945050604086013567ffffffffffffffff811115610935576109346104af565b5b61094188828901610845565b935050606061095288828901610883565b9250506080610963888289016108a8565b9150509295509295909350565b7f4e487b7100000000000000000000000000000000000000000000000000000000600052602260045260246000fd5b600060028204905060018216806109b757607f821691505b602082108114156109cb576109ca610970565b5b5091905056fea2646970667358221220c1495f02a9a2b10b0e96c157758a06a64828049a0a54b21ee16a24771648a68164736f6c634300080a0033",
  "immutableReferences": {},
  "source": "// SPDX-License-Identifier: MIT\npragma solidity >=0.4.22 <0.9.0;\n\ncontract Student {\n    constructor() {}\n\n    // Returns uint\n    // BS_COMPUTER_ENGINEERING    - 0\n    // BS_COMPUTER_SCIENCE        - 1\n    // BS_INFORMATION_TECHNOLOGY  - 2\n    enum Course {\n        BS_COMPUTER_ENGINEERING,\n        BS_COMPUTER_SCIENCE,\n        BS_INFORMATION_TECHNOLOGY\n    }\n\n    // Returns uint\n    // Pending  - 0\n    // Accepted - 1\n    // Rejected - 2\n    // Canceled - 3\n    enum Status {\n        Pending,\n        Accepted,\n        Rejected,\n        Canceled\n    }\n\n    struct StudentInfo {\n        bytes32 studentId;\n        string firstName;\n        string lastName;\n        bool isPassed;\n        Course course;\n        Status status;\n    }\n\n    mapping(bytes32 => StudentInfo) studentInfo;\n\n    StudentInfo[] public students;\n\n    function create(\n      bytes32 _studentId,\n      string memory _firstName,\n      string memory _lastName,\n      Course _course,\n      Status _status\n    ) public {\n\n      StudentInfo memory student;\n      student.studentId = _studentId;\n      student.firstName = _firstName;\n      student.lastName = _lastName;\n      student.isPassed = false;\n      student.course = _course;\n      student.status = _status;\n\n      students.push(student);\n\n    }\n}\n",
  "sourcePath": "C:\\XianD\\repos\\ethereum-practice\\contracts\\Student.sol",
  "compiler": {
    "name": "solc",
    "version": "0.8.10+commit.fc410830.Emscripten.clang"
  },
  "schemaVersion": "3.4.3",
  "updatedAt": "2021-12-16T07:49:51.970Z",
  "devdoc": {
    "kind": "dev",
    "methods": {},
    "version": 1
  },
  "userdoc": {
    "kind": "user",
    "methods": {},
    "version": 1
  }
}