{
  "contractName": "Student",
  "abi": [
    {
      "inputs": [],
      "stateMutability": "nonpayable",
      "type": "constructor"
    },
    {
      "anonymous": false,
      "inputs": [
        {
          "indexed": false,
          "internalType": "string",
          "name": "studentId",
          "type": "string"
        },
        {
          "indexed": false,
          "internalType": "string",
          "name": "firstName",
          "type": "string"
        },
        {
          "indexed": false,
          "internalType": "string",
          "name": "lastName",
          "type": "string"
        },
        {
          "indexed": false,
          "internalType": "enum Student.Course",
          "name": "course",
          "type": "uint8"
        },
        {
          "indexed": false,
          "internalType": "enum Student.Status",
          "name": "status",
          "type": "uint8"
        }
      ],
      "name": "StudentEvent",
      "type": "event"
    },
    {
      "inputs": [
        {
          "internalType": "uint256",
          "name": "",
          "type": "uint256"
        }
      ],
      "name": "students",
      "outputs": [
        {
          "internalType": "uint256",
          "name": "id",
          "type": "uint256"
        },
        {
          "internalType": "string",
          "name": "studentId",
          "type": "string"
        },
        {
          "internalType": "string",
          "name": "firstName",
          "type": "string"
        },
        {
          "internalType": "string",
          "name": "lastName",
          "type": "string"
        },
        {
          "internalType": "bool",
          "name": "isPassed",
          "type": "bool"
        },
        {
          "internalType": "enum Student.Course",
          "name": "course",
          "type": "uint8"
        },
        {
          "internalType": "enum Student.Status",
          "name": "status",
          "type": "uint8"
        },
        {
          "internalType": "address",
          "name": "sender",
          "type": "address"
        }
      ],
      "stateMutability": "view",
      "type": "function"
    },
    {
      "inputs": [
        {
          "internalType": "string",
          "name": "_studentId",
          "type": "string"
        },
        {
          "internalType": "string",
          "name": "_firstName",
          "type": "string"
        },
        {
          "internalType": "string",
          "name": "_lastName",
          "type": "string"
        },
        {
          "internalType": "enum Student.Course",
          "name": "_course",
          "type": "uint8"
        },
        {
          "internalType": "enum Student.Status",
          "name": "_status",
          "type": "uint8"
        }
      ],
      "name": "create",
      "outputs": [
        {
          "internalType": "string",
          "name": "",
          "type": "string"
        }
      ],
      "stateMutability": "nonpayable",
      "type": "function"
    },
    {
      "inputs": [
        {
          "internalType": "string",
          "name": "_studentId",
          "type": "string"
        },
        {
          "internalType": "string",
          "name": "_firstName",
          "type": "string"
        },
        {
          "internalType": "string",
          "name": "_lastName",
          "type": "string"
        },
        {
          "internalType": "enum Student.Course",
          "name": "_course",
          "type": "uint8"
        },
        {
          "internalType": "enum Student.Status",
          "name": "_status",
          "type": "uint8"
        }
      ],
      "name": "update",
      "outputs": [
        {
          "internalType": "string",
          "name": "",
          "type": "string"
        }
      ],
      "stateMutability": "nonpayable",
      "type": "function"
    },
    {
      "inputs": [
        {
          "internalType": "string",
          "name": "_studentId",
          "type": "string"
        },
        {
          "internalType": "enum Student.Course",
          "name": "_course",
          "type": "uint8"
        }
      ],
      "name": "updateCourse",
      "outputs": [
        {
          "internalType": "string",
          "name": "",
          "type": "string"
        }
      ],
      "stateMutability": "nonpayable",
      "type": "function"
    },
    {
      "inputs": [
        {
          "internalType": "string",
          "name": "_studentId",
          "type": "string"
        }
      ],
      "name": "getStudentInfoBy",
      "outputs": [
        {
          "internalType": "string",
          "name": "studentId",
          "type": "string"
        },
        {
          "internalType": "string",
          "name": "firstName",
          "type": "string"
        },
        {
          "internalType": "string",
          "name": "lastName",
          "type": "string"
        },
        {
          "internalType": "bool",
          "name": "isPassed",
          "type": "bool"
        },
        {
          "internalType": "enum Student.Course",
          "name": "course",
          "type": "uint8"
        },
        {
          "internalType": "enum Student.Status",
          "name": "status",
          "type": "uint8"
        },
        {
          "internalType": "address",
          "name": "sender",
          "type": "address"
        }
      ],
      "stateMutability": "view",
      "type": "function"
    }
  ],
  "bytecode": "0x608060405234801561001057600080fd5b506119f8806100206000396000f3fe608060405234801561001057600080fd5b50600436106100575760003560e01c806306ead22e1461005c578063102fd806146100935780633db351cb146100c9578063ae578e41146100f9578063f9bd0f7314610129575b600080fd5b61007660048036038101906100719190611212565b610159565b60405161008a989796959493929190611402565b60405180910390f35b6100ad60048036038101906100a891906115ca565b610390565b6040516100c09796959493929190611613565b60405180910390f35b6100e360048036038101906100de91906116e1565b6106ac565b6040516100f091906117b0565b60405180910390f35b610113600480360381019061010e91906116e1565b61096c565b60405161012091906117b0565b60405180910390f35b610143600480360381019061013e91906117d2565b610d49565b60405161015091906117b0565b60405180910390f35b6001818154811061016957600080fd5b90600052602060002090600502016000915090508060000154908060010180546101929061185d565b80601f01602080910402602001604051908101604052809291908181526020018280546101be9061185d565b801561020b5780601f106101e05761010080835404028352916020019161020b565b820191906000526020600020905b8154815290600101906020018083116101ee57829003601f168201915b5050505050908060020180546102209061185d565b80601f016020809104026020016040519081016040528092919081815260200182805461024c9061185d565b80156102995780601f1061026e57610100808354040283529160200191610299565b820191906000526020600020905b81548152906001019060200180831161027c57829003601f168201915b5050505050908060030180546102ae9061185d565b80601f01602080910402602001604051908101604052809291908181526020018280546102da9061185d565b80156103275780601f106102fc57610100808354040283529160200191610327565b820191906000526020600020905b81548152906001019060200180831161030a57829003601f168201915b5050505050908060040160009054906101000a900460ff16908060040160019054906101000a900460ff16908060040160029054906101000a900460ff16908060040160039054906101000a900473ffffffffffffffffffffffffffffffffffffffff16905088565b6060806060600080600080600080896040516103ac91906118cb565b908152602001604051809103902060405180610100016040529081600082015481526020016001820180546103e09061185d565b80601f016020809104026020016040519081016040528092919081815260200182805461040c9061185d565b80156104595780601f1061042e57610100808354040283529160200191610459565b820191906000526020600020905b81548152906001019060200180831161043c57829003601f168201915b505050505081526020016002820180546104729061185d565b80601f016020809104026020016040519081016040528092919081815260200182805461049e9061185d565b80156104eb5780601f106104c0576101008083540402835291602001916104eb565b820191906000526020600020905b8154815290600101906020018083116104ce57829003601f168201915b505050505081526020016003820180546105049061185d565b80601f01602080910402602001604051908101604052809291908181526020018280546105309061185d565b801561057d5780601f106105525761010080835404028352916020019161057d565b820191906000526020600020905b81548152906001019060200180831161056057829003601f168201915b505050505081526020016004820160009054906101000a900460ff161515151581526020016004820160019054906101000a900460ff1660028111156105c6576105c5611302565b5b60028111156105d8576105d7611302565b5b81526020016004820160029054906101000a900460ff16600381111561060157610600611302565b5b600381111561061357610612611302565b5b81526020016004820160039054906101000a900473ffffffffffffffffffffffffffffffffffffffff1673ffffffffffffffffffffffffffffffffffffffff1673ffffffffffffffffffffffffffffffffffffffff1681525050905080602001518160400151826060015183608001518460a001518560c001518660e00151975097509750975097509750975050919395979092949650565b6060600080876040516106bf91906118cb565b90815260200160405180910390209050858160020190805190602001906106e7929190611017565b5084816003019080519060200190610700929190611017565b5060008160040160006101000a81548160ff021916908315150217905550838160040160016101000a81548160ff0219169083600281111561074557610744611302565b5b0217905550828160040160026101000a81548160ff0219169083600381111561077157610770611302565b5b0217905550338160040160036101000a81548173ffffffffffffffffffffffffffffffffffffffff021916908373ffffffffffffffffffffffffffffffffffffffff16021790555060018190806001815401808255809150506001900390600052602060002090600502016000909190919091506000820154816000015560018201816001019080546108039061185d565b61080e92919061109d565b5060028201816002019080546108239061185d565b61082e92919061109d565b5060038201816003019080546108439061185d565b61084e92919061109d565b506004820160009054906101000a900460ff168160040160006101000a81548160ff0219169083151502179055506004820160019054906101000a900460ff168160040160016101000a81548160ff021916908360028111156108b4576108b3611302565b5b02179055506004820160029054906101000a900460ff168160040160026101000a81548160ff021916908360038111156108f1576108f0611302565b5b02179055506004820160039054906101000a900473ffffffffffffffffffffffffffffffffffffffff168160040160036101000a81548173ffffffffffffffffffffffffffffffffffffffff021916908373ffffffffffffffffffffffffffffffffffffffff16021790555050508691505095945050505050565b606060006001805490509050808061098390611911565b91505061098e61112a565b818160000181815250508781602001819052508681604001819052508581606001819052506000816080019015159081151581525050848160a0019060028111156109dc576109db611302565b5b908160028111156109f0576109ef611302565b5b81525050838160c001906003811115610a0c57610a0b611302565b5b90816003811115610a2057610a1f611302565b5b81525050338160e0019073ffffffffffffffffffffffffffffffffffffffff16908173ffffffffffffffffffffffffffffffffffffffff16815250506001819080600181540180825580915050600190039060005260206000209060050201600090919091909150600082015181600001556020820151816001019080519060200190610aae929190611017565b506040820151816002019080519060200190610acb929190611017565b506060820151816003019080519060200190610ae8929190611017565b5060808201518160040160006101000a81548160ff02191690831515021790555060a08201518160040160016101000a81548160ff02191690836002811115610b3457610b33611302565b5b021790555060c08201518160040160026101000a81548160ff02191690836003811115610b6457610b63611302565b5b021790555060e08201518160040160036101000a81548173ffffffffffffffffffffffffffffffffffffffff021916908373ffffffffffffffffffffffffffffffffffffffff160217905550505080600089604051610bc391906118cb565b9081526020016040518091039020600082015181600001556020820151816001019080519060200190610bf7929190611017565b506040820151816002019080519060200190610c14929190611017565b506060820151816003019080519060200190610c31929190611017565b5060808201518160040160006101000a81548160ff02191690831515021790555060a08201518160040160016101000a81548160ff02191690836002811115610c7d57610c7c611302565b5b021790555060c08201518160040160026101000a81548160ff02191690836003811115610cad57610cac611302565b5b021790555060e08201518160040160036101000a81548173ffffffffffffffffffffffffffffffffffffffff021916908373ffffffffffffffffffffffffffffffffffffffff1602179055509050507ff5a0ac16cee10fe6b04f047a3ecc76fe90810a82b64436fb025b4e6c6506dc338888888888604051610d3395949392919061195a565b60405180910390a1879250505095945050505050565b606060008084604051610d5c91906118cb565b90815260200160405180910390209050828160040160016101000a81548160ff02191690836002811115610d9357610d92611302565b5b0217905550338160040160036101000a81548173ffffffffffffffffffffffffffffffffffffffff021916908373ffffffffffffffffffffffffffffffffffffffff1602179055506001819080600181540180825580915050600190039060005260206000209060050201600090919091909150600082015481600001556001820181600101908054610e259061185d565b610e3092919061109d565b506002820181600201908054610e459061185d565b610e5092919061109d565b506003820181600301908054610e659061185d565b610e7092919061109d565b506004820160009054906101000a900460ff168160040160006101000a81548160ff0219169083151502179055506004820160019054906101000a900460ff168160040160016101000a81548160ff02191690836002811115610ed657610ed5611302565b5b02179055506004820160029054906101000a900460ff168160040160026101000a81548160ff02191690836003811115610f1357610f12611302565b5b02179055506004820160039054906101000a900473ffffffffffffffffffffffffffffffffffffffff168160040160036101000a81548173ffffffffffffffffffffffffffffffffffffffff021916908373ffffffffffffffffffffffffffffffffffffffff1602179055505050806001018054610f909061185d565b80601f0160208091040260200160405190810160405280929190818152602001828054610fbc9061185d565b80156110095780601f10610fde57610100808354040283529160200191611009565b820191906000526020600020905b815481529060010190602001808311610fec57829003601f168201915b505050505091505092915050565b8280546110239061185d565b90600052602060002090601f016020900481019282611045576000855561108c565b82601f1061105e57805160ff191683800117855561108c565b8280016001018555821561108c579182015b8281111561108b578251825591602001919060010190611070565b5b50905061109991906111ab565b5090565b8280546110a99061185d565b90600052602060002090601f0160209004810192826110cb5760008555611119565b82601f106110dc5780548555611119565b8280016001018555821561111957600052602060002091601f016020900482015b828111156111185782548255916001019190600101906110fd565b5b50905061112691906111ab565b5090565b604051806101000160405280600081526020016060815260200160608152602001606081526020016000151581526020016000600281111561116f5761116e611302565b5b81526020016000600381111561118857611187611302565b5b8152602001600073ffffffffffffffffffffffffffffffffffffffff1681525090565b5b808211156111c45760008160009055506001016111ac565b5090565b6000604051905090565b600080fd5b600080fd5b6000819050919050565b6111ef816111dc565b81146111fa57600080fd5b50565b60008135905061120c816111e6565b92915050565b600060208284031215611228576112276111d2565b5b6000611236848285016111fd565b91505092915050565b611248816111dc565b82525050565b600081519050919050565b600082825260208201905092915050565b60005b8381101561128857808201518184015260208101905061126d565b83811115611297576000848401525b50505050565b6000601f19601f8301169050919050565b60006112b98261124e565b6112c38185611259565b93506112d381856020860161126a565b6112dc8161129d565b840191505092915050565b60008115159050919050565b6112fc816112e7565b82525050565b7f4e487b7100000000000000000000000000000000000000000000000000000000600052602160045260246000fd5b6003811061134257611341611302565b5b50565b600081905061135382611331565b919050565b600061136382611345565b9050919050565b61137381611358565b82525050565b6004811061138a57611389611302565b5b50565b600081905061139b82611379565b919050565b60006113ab8261138d565b9050919050565b6113bb816113a0565b82525050565b600073ffffffffffffffffffffffffffffffffffffffff82169050919050565b60006113ec826113c1565b9050919050565b6113fc816113e1565b82525050565b600061010082019050611418600083018b61123f565b818103602083015261142a818a6112ae565b9050818103604083015261143e81896112ae565b9050818103606083015261145281886112ae565b905061146160808301876112f3565b61146e60a083018661136a565b61147b60c08301856113b2565b61148860e08301846113f3565b9998505050505050505050565b600080fd5b600080fd5b7f4e487b7100000000000000000000000000000000000000000000000000000000600052604160045260246000fd5b6114d78261129d565b810181811067ffffffffffffffff821117156114f6576114f561149f565b5b80604052505050565b60006115096111c8565b905061151582826114ce565b919050565b600067ffffffffffffffff8211156115355761153461149f565b5b61153e8261129d565b9050602081019050919050565b82818337600083830152505050565b600061156d6115688461151a565b6114ff565b9050828152602081018484840111156115895761158861149a565b5b61159484828561154b565b509392505050565b600082601f8301126115b1576115b0611495565b5b81356115c184826020860161155a565b91505092915050565b6000602082840312156115e0576115df6111d2565b5b600082013567ffffffffffffffff8111156115fe576115fd6111d7565b5b61160a8482850161159c565b91505092915050565b600060e082019050818103600083015261162d818a6112ae565b9050818103602083015261164181896112ae565b9050818103604083015261165581886112ae565b905061166460608301876112f3565b611671608083018661136a565b61167e60a08301856113b2565b61168b60c08301846113f3565b98975050505050505050565b600381106116a457600080fd5b50565b6000813590506116b681611697565b92915050565b600481106116c957600080fd5b50565b6000813590506116db816116bc565b92915050565b600080600080600060a086880312156116fd576116fc6111d2565b5b600086013567ffffffffffffffff81111561171b5761171a6111d7565b5b6117278882890161159c565b955050602086013567ffffffffffffffff811115611748576117476111d7565b5b6117548882890161159c565b945050604086013567ffffffffffffffff811115611775576117746111d7565b5b6117818882890161159c565b9350506060611792888289016116a7565b92505060806117a3888289016116cc565b9150509295509295909350565b600060208201905081810360008301526117ca81846112ae565b905092915050565b600080604083850312156117e9576117e86111d2565b5b600083013567ffffffffffffffff811115611807576118066111d7565b5b6118138582860161159c565b9250506020611824858286016116a7565b9150509250929050565b7f4e487b7100000000000000000000000000000000000000000000000000000000600052602260045260246000fd5b6000600282049050600182168061187557607f821691505b602082108114156118895761188861182e565b5b50919050565b600081905092915050565b60006118a58261124e565b6118af818561188f565b93506118bf81856020860161126a565b80840191505092915050565b60006118d7828461189a565b915081905092915050565b7f4e487b7100000000000000000000000000000000000000000000000000000000600052601160045260246000fd5b600061191c826111dc565b91507fffffffffffffffffffffffffffffffffffffffffffffffffffffffffffffffff82141561194f5761194e6118e2565b5b600182019050919050565b600060a082019050818103600083015261197481886112ae565b9050818103602083015261198881876112ae565b9050818103604083015261199c81866112ae565b90506119ab606083018561136a565b6119b860808301846113b2565b969550505050505056fea26469706673582212203cb00b50337cc48c2b3cefb73905a0bad388832071595a5f4156236f9987106264736f6c634300080a0033",
  "immutableReferences": {},
  "source": "// SPDX-License-Identifier: MIT\npragma solidity >=0.4.17 <0.9.0;\n\ncontract Student {\n    constructor() {}\n\n    // Returns uint\n    // BS_COMPUTER_ENGINEERING    - 0\n    // BS_COMPUTER_SCIENCE        - 1\n    // BS_INFORMATION_TECHNOLOGY  - 2\n    enum Course {\n        BS_COMPUTER_ENGINEERING,\n        BS_COMPUTER_SCIENCE,\n        BS_INFORMATION_TECHNOLOGY\n    }\n\n    // Returns uint\n    // Pending  - 0\n    // Accepted - 1\n    // Rejected - 2\n    // Canceled - 3\n    enum Status {\n        Pending,\n        Accepted,\n        Rejected,\n        Canceled\n    }\n\n    struct StudentInfo {\n        uint id;\n        string studentId;\n        string firstName;\n        string lastName;\n        bool isPassed;\n        Course course;\n        Status status;\n        address sender;\n    }\n\n    mapping(string => StudentInfo) studentInfo;\n\n    StudentInfo[] public students;\n\n    event StudentEvent(\n        string studentId,\n        string firstName,\n        string lastName,\n        Course course,\n        Status status\n    );\n\n    function create(\n      string memory _studentId,\n      string memory _firstName,\n      string memory _lastName,\n      Course _course,\n      Status _status\n    ) public returns (string memory){\n      uint _id = students.length;\n      _id++;\n\n      StudentInfo memory student;\n\n      student.id = _id;\n      student.studentId = _studentId;\n      student.firstName = _firstName;\n      student.lastName = _lastName;\n      student.isPassed = false;\n      student.course = _course;\n      student.status = _status;\n      student.sender = address(msg.sender);\n\n      students.push(student);\n      // add to the mapping by  studentId\n      studentInfo[_studentId] = student;\n\n      emit StudentEvent(\n        _studentId,\n        _firstName,\n        _lastName,\n        _course,\n        _status\n      );\n\n      return _studentId;\n    }\n\n    function update(\n      string memory _studentId,\n      string memory _firstName,\n      string memory _lastName,\n      Course _course,\n      Status _status\n    ) public returns (string memory){\n      StudentInfo storage student = studentInfo[_studentId];\n\n      student.firstName = _firstName;\n      student.lastName = _lastName;\n      student.isPassed = false;\n      student.course = _course;\n      student.status = _status;\n      student.sender = address(msg.sender);\n\n      students.push(student);\n\n      return _studentId;\n    }\n\n    function updateCourse(\n      string memory _studentId,\n      Course _course\n    ) public returns (string memory){\n      StudentInfo storage student = studentInfo[_studentId];\n\n      student.course = _course;\n      student.sender = address(msg.sender);\n\n      students.push(student);\n\n      return student.studentId;\n    }\n\n    function getStudentInfoBy(string memory _studentId)\n      public\n      view\n      returns (\n        string memory studentId,\n        string memory firstName,\n        string memory lastName,\n        bool isPassed,\n        Course course,\n        Status status,\n        address sender\n      ) {\n        StudentInfo memory student = studentInfo[_studentId];\n\n        return (\n          student.studentId,\n          student.firstName,\n          student.lastName,\n          student.isPassed,\n          student.course,\n          student.status,\n          student.sender\n        );\n      }\n}",
  "sourcePath": "C:\\XianD\\repos\\xian\\Ether101\\contracts\\Student.sol",
  "compiler": {
    "name": "solc",
    "version": "0.8.10+commit.fc410830.Emscripten.clang"
  },
  "schemaVersion": "3.4.3",
  "updatedAt": "2021-12-20T00:01:07.580Z",
  "devdoc": {
    "kind": "dev",
    "methods": {},
    "version": 1
  },
  "userdoc": {
    "kind": "user",
    "methods": {},
    "version": 1
  }
}