{
  "contractName": "Student",
  "abi": [
    {
      "inputs": [],
      "stateMutability": "nonpayable",
      "type": "constructor"
    },
    {
      "inputs": [
        {
          "internalType": "uint256",
          "name": "",
          "type": "uint256"
        }
      ],
      "name": "students",
      "outputs": [
        {
          "internalType": "string",
          "name": "studentId",
          "type": "string"
        },
        {
          "internalType": "string",
          "name": "firstName",
          "type": "string"
        },
        {
          "internalType": "string",
          "name": "lastName",
          "type": "string"
        },
        {
          "internalType": "bool",
          "name": "isPassed",
          "type": "bool"
        },
        {
          "internalType": "enum Student.Course",
          "name": "course",
          "type": "uint8"
        },
        {
          "internalType": "enum Student.Status",
          "name": "status",
          "type": "uint8"
        }
      ],
      "stateMutability": "view",
      "type": "function"
    },
    {
      "inputs": [
        {
          "internalType": "string",
          "name": "_studentId",
          "type": "string"
        },
        {
          "internalType": "string",
          "name": "_firstName",
          "type": "string"
        },
        {
          "internalType": "string",
          "name": "_lastName",
          "type": "string"
        },
        {
          "internalType": "enum Student.Course",
          "name": "_course",
          "type": "uint8"
        },
        {
          "internalType": "enum Student.Status",
          "name": "_status",
          "type": "uint8"
        }
      ],
      "name": "create",
      "outputs": [],
      "stateMutability": "nonpayable",
      "type": "function"
    }
  ],
  "bytecode": "0x608060405234801561001057600080fd5b50610a7c806100206000396000f3fe608060405234801561001057600080fd5b50600436106100365760003560e01c806306ead22e1461003b578063ae578e4114610070575b600080fd5b61005560048036038101906100509190610581565b61008c565b60405161006796959493929190610721565b60405180910390f35b61008a60048036038101906100859190610916565b610297565b005b6001818154811061009c57600080fd5b90600052602060002090600402016000915090508060000180546100bf90610a14565b80601f01602080910402602001604051908101604052809291908181526020018280546100eb90610a14565b80156101385780601f1061010d57610100808354040283529160200191610138565b820191906000526020600020905b81548152906001019060200180831161011b57829003601f168201915b50505050509080600101805461014d90610a14565b80601f016020809104026020016040519081016040528092919081815260200182805461017990610a14565b80156101c65780601f1061019b576101008083540402835291602001916101c6565b820191906000526020600020905b8154815290600101906020018083116101a957829003601f168201915b5050505050908060020180546101db90610a14565b80601f016020809104026020016040519081016040528092919081815260200182805461020790610a14565b80156102545780601f1061022957610100808354040283529160200191610254565b820191906000526020600020905b81548152906001019060200180831161023757829003601f168201915b5050505050908060030160009054906101000a900460ff16908060030160019054906101000a900460ff16908060030160029054906101000a900460ff16905086565b61029f610438565b858160000181905250848160200181905250838160400181905250600081606001901515908115158152505082816080019060028111156102e3576102e2610662565b5b908160028111156102f7576102f6610662565b5b81525050818160a00190600381111561031357610312610662565b5b9081600381111561032757610326610662565b5b8152505060018190806001815401808255809150506001900390600052602060002090600402016000909190919091506000820151816000019080519060200190610373929190610494565b506020820151816001019080519060200190610390929190610494565b5060408201518160020190805190602001906103ad929190610494565b5060608201518160030160006101000a81548160ff02191690831515021790555060808201518160030160016101000a81548160ff021916908360028111156103f9576103f8610662565b5b021790555060a08201518160030160026101000a81548160ff0219169083600381111561042957610428610662565b5b02179055505050505050505050565b6040518060c001604052806060815260200160608152602001606081526020016000151581526020016000600281111561047557610474610662565b5b81526020016000600381111561048e5761048d610662565b5b81525090565b8280546104a090610a14565b90600052602060002090601f0160209004810192826104c25760008555610509565b82601f106104db57805160ff1916838001178555610509565b82800160010185558215610509579182015b828111156105085782518255916020019190600101906104ed565b5b509050610516919061051a565b5090565b5b8082111561053357600081600090555060010161051b565b5090565b6000604051905090565b600080fd5b600080fd5b6000819050919050565b61055e8161054b565b811461056957600080fd5b50565b60008135905061057b81610555565b92915050565b60006020828403121561059757610596610541565b5b60006105a58482850161056c565b91505092915050565b600081519050919050565b600082825260208201905092915050565b60005b838110156105e85780820151818401526020810190506105cd565b838111156105f7576000848401525b50505050565b6000601f19601f8301169050919050565b6000610619826105ae565b61062381856105b9565b93506106338185602086016105ca565b61063c816105fd565b840191505092915050565b60008115159050919050565b61065c81610647565b82525050565b7f4e487b7100000000000000000000000000000000000000000000000000000000600052602160045260246000fd5b600381106106a2576106a1610662565b5b50565b60008190506106b382610691565b919050565b60006106c3826106a5565b9050919050565b6106d3816106b8565b82525050565b600481106106ea576106e9610662565b5b50565b60008190506106fb826106d9565b919050565b600061070b826106ed565b9050919050565b61071b81610700565b82525050565b600060c082019050818103600083015261073b818961060e565b9050818103602083015261074f818861060e565b90508181036040830152610763818761060e565b90506107726060830186610653565b61077f60808301856106ca565b61078c60a0830184610712565b979650505050505050565b600080fd5b600080fd5b7f4e487b7100000000000000000000000000000000000000000000000000000000600052604160045260246000fd5b6107d9826105fd565b810181811067ffffffffffffffff821117156107f8576107f76107a1565b5b80604052505050565b600061080b610537565b905061081782826107d0565b919050565b600067ffffffffffffffff821115610837576108366107a1565b5b610840826105fd565b9050602081019050919050565b82818337600083830152505050565b600061086f61086a8461081c565b610801565b90508281526020810184848401111561088b5761088a61079c565b5b61089684828561084d565b509392505050565b600082601f8301126108b3576108b2610797565b5b81356108c384826020860161085c565b91505092915050565b600381106108d957600080fd5b50565b6000813590506108eb816108cc565b92915050565b600481106108fe57600080fd5b50565b600081359050610910816108f1565b92915050565b600080600080600060a0868803121561093257610931610541565b5b600086013567ffffffffffffffff8111156109505761094f610546565b5b61095c8882890161089e565b955050602086013567ffffffffffffffff81111561097d5761097c610546565b5b6109898882890161089e565b945050604086013567ffffffffffffffff8111156109aa576109a9610546565b5b6109b68882890161089e565b93505060606109c7888289016108dc565b92505060806109d888828901610901565b9150509295509295909350565b7f4e487b7100000000000000000000000000000000000000000000000000000000600052602260045260246000fd5b60006002820490506001821680610a2c57607f821691505b60208210811415610a4057610a3f6109e5565b5b5091905056fea26469706673582212208790e41d59b731bd04a9f6feb078504033d7649f20e4aaa45c37fb972069f2e764736f6c634300080a0033",
  "immutableReferences": {},
  "source": "// SPDX-License-Identifier: MIT\npragma solidity >=0.4.22 <0.9.0;\n\ncontract Student {\n    constructor() {}\n\n    // Returns uint\n    // BS_COMPUTER_ENGINEERING    - 0\n    // BS_COMPUTER_SCIENCE        - 1\n    // BS_INFORMATION_TECHNOLOGY  - 2\n    enum Course {\n        BS_COMPUTER_ENGINEERING,\n        BS_COMPUTER_SCIENCE,\n        BS_INFORMATION_TECHNOLOGY\n    }\n\n    // Returns uint\n    // Pending  - 0\n    // Accepted - 1\n    // Rejected - 2\n    // Canceled - 3\n    enum Status {\n        Pending,\n        Accepted,\n        Rejected,\n        Canceled\n    }\n\n    struct StudentInfo {\n        string studentId;\n        string firstName;\n        string lastName;\n        bool isPassed;\n        Course course;\n        Status status;\n    }\n\n    mapping(string => StudentInfo) studentInfo;\n\n    StudentInfo[] public students;\n\n    function create(\n      string memory _studentId,\n      string memory _firstName,\n      string memory _lastName,\n      Course _course,\n      Status _status\n    ) public {\n\n      StudentInfo memory student;\n      student.studentId = _studentId;\n      student.firstName = _firstName;\n      student.lastName = _lastName;\n      student.isPassed = false;\n      student.course = _course;\n      student.status = _status;\n\n      students.push(student);\n\n    }\n}",
  "sourcePath": "C:\\XianD\\repos\\xian\\Ether101\\contracts\\Student.sol",
  "compiler": {
    "name": "solc",
    "version": "0.8.10+commit.fc410830.Emscripten.clang"
  },
  "schemaVersion": "3.4.3",
  "updatedAt": "2021-12-17T02:39:41.309Z",
  "devdoc": {
    "kind": "dev",
    "methods": {},
    "version": 1
  },
  "userdoc": {
    "kind": "user",
    "methods": {},
    "version": 1
  }
}