{
  "contractName": "Student",
  "abi": [
    {
      "inputs": [],
      "stateMutability": "nonpayable",
      "type": "constructor"
    },
    {
      "anonymous": false,
      "inputs": [
        {
          "indexed": false,
          "internalType": "string",
          "name": "studentId",
          "type": "string"
        },
        {
          "indexed": false,
          "internalType": "string",
          "name": "firstName",
          "type": "string"
        },
        {
          "indexed": false,
          "internalType": "string",
          "name": "lastName",
          "type": "string"
        },
        {
          "indexed": false,
          "internalType": "enum Student.Course",
          "name": "course",
          "type": "uint8"
        },
        {
          "indexed": false,
          "internalType": "enum Student.Status",
          "name": "status",
          "type": "uint8"
        }
      ],
      "name": "StudentEvent",
      "type": "event"
    },
    {
      "inputs": [
        {
          "internalType": "uint256",
          "name": "",
          "type": "uint256"
        }
      ],
      "name": "students",
      "outputs": [
        {
          "internalType": "uint256",
          "name": "id",
          "type": "uint256"
        },
        {
          "internalType": "string",
          "name": "studentId",
          "type": "string"
        },
        {
          "internalType": "string",
          "name": "firstName",
          "type": "string"
        },
        {
          "internalType": "string",
          "name": "lastName",
          "type": "string"
        },
        {
          "internalType": "bool",
          "name": "isPassed",
          "type": "bool"
        },
        {
          "internalType": "enum Student.Course",
          "name": "course",
          "type": "uint8"
        },
        {
          "internalType": "enum Student.Status",
          "name": "status",
          "type": "uint8"
        },
        {
          "internalType": "address",
          "name": "sender",
          "type": "address"
        }
      ],
      "stateMutability": "view",
      "type": "function"
    },
    {
      "inputs": [
        {
          "internalType": "string",
          "name": "_studentId",
          "type": "string"
        },
        {
          "internalType": "string",
          "name": "_firstName",
          "type": "string"
        },
        {
          "internalType": "string",
          "name": "_lastName",
          "type": "string"
        },
        {
          "internalType": "enum Student.Course",
          "name": "_course",
          "type": "uint8"
        },
        {
          "internalType": "enum Student.Status",
          "name": "_status",
          "type": "uint8"
        }
      ],
      "name": "create",
      "outputs": [
        {
          "internalType": "string",
          "name": "",
          "type": "string"
        }
      ],
      "stateMutability": "nonpayable",
      "type": "function"
    },
    {
      "inputs": [
        {
          "internalType": "string",
          "name": "_studentId",
          "type": "string"
        },
        {
          "internalType": "string",
          "name": "_firstName",
          "type": "string"
        },
        {
          "internalType": "string",
          "name": "_lastName",
          "type": "string"
        },
        {
          "internalType": "enum Student.Course",
          "name": "_course",
          "type": "uint8"
        },
        {
          "internalType": "enum Student.Status",
          "name": "_status",
          "type": "uint8"
        }
      ],
      "name": "update",
      "outputs": [
        {
          "internalType": "string",
          "name": "",
          "type": "string"
        }
      ],
      "stateMutability": "nonpayable",
      "type": "function"
    },
    {
      "inputs": [
        {
          "internalType": "string",
          "name": "_studentId",
          "type": "string"
        },
        {
          "internalType": "enum Student.Course",
          "name": "_course",
          "type": "uint8"
        }
      ],
      "name": "updateCourse",
      "outputs": [
        {
          "internalType": "string",
          "name": "",
          "type": "string"
        }
      ],
      "stateMutability": "nonpayable",
      "type": "function"
    },
    {
      "inputs": [
        {
          "internalType": "string",
          "name": "_studentId",
          "type": "string"
        }
      ],
      "name": "getStudentInfoByStudentId",
      "outputs": [
        {
          "internalType": "string",
          "name": "studentId",
          "type": "string"
        },
        {
          "internalType": "string",
          "name": "firstName",
          "type": "string"
        },
        {
          "internalType": "string",
          "name": "lastName",
          "type": "string"
        },
        {
          "internalType": "bool",
          "name": "isPassed",
          "type": "bool"
        },
        {
          "internalType": "enum Student.Course",
          "name": "course",
          "type": "uint8"
        },
        {
          "internalType": "enum Student.Status",
          "name": "status",
          "type": "uint8"
        },
        {
          "internalType": "address",
          "name": "sender",
          "type": "address"
        }
      ],
      "stateMutability": "view",
      "type": "function"
    },
    {
      "inputs": [
        {
          "internalType": "string",
          "name": "_studentId",
          "type": "string"
        }
      ],
      "name": "getStudentReturnStruct",
      "outputs": [
        {
          "components": [
            {
              "internalType": "uint256",
              "name": "id",
              "type": "uint256"
            },
            {
              "internalType": "string",
              "name": "studentId",
              "type": "string"
            },
            {
              "internalType": "string",
              "name": "firstName",
              "type": "string"
            },
            {
              "internalType": "string",
              "name": "lastName",
              "type": "string"
            },
            {
              "internalType": "bool",
              "name": "isPassed",
              "type": "bool"
            },
            {
              "internalType": "enum Student.Course",
              "name": "course",
              "type": "uint8"
            },
            {
              "internalType": "enum Student.Status",
              "name": "status",
              "type": "uint8"
            },
            {
              "internalType": "address",
              "name": "sender",
              "type": "address"
            }
          ],
          "internalType": "struct Student.StudentInfo",
          "name": "",
          "type": "tuple"
        }
      ],
      "stateMutability": "view",
      "type": "function"
    },
    {
      "inputs": [],
      "name": "allStudents",
      "outputs": [
        {
          "components": [
            {
              "internalType": "uint256",
              "name": "id",
              "type": "uint256"
            },
            {
              "internalType": "string",
              "name": "studentId",
              "type": "string"
            },
            {
              "internalType": "string",
              "name": "firstName",
              "type": "string"
            },
            {
              "internalType": "string",
              "name": "lastName",
              "type": "string"
            },
            {
              "internalType": "bool",
              "name": "isPassed",
              "type": "bool"
            },
            {
              "internalType": "enum Student.Course",
              "name": "course",
              "type": "uint8"
            },
            {
              "internalType": "enum Student.Status",
              "name": "status",
              "type": "uint8"
            },
            {
              "internalType": "address",
              "name": "sender",
              "type": "address"
            }
          ],
          "internalType": "struct Student.StudentInfo[]",
          "name": "",
          "type": "tuple[]"
        }
      ],
      "stateMutability": "view",
      "type": "function"
    }
  ],
  "bytecode": "0x608060405234801561001057600080fd5b506123ae806100206000396000f3fe608060405234801561001057600080fd5b506004361061007d5760003560e01c8063b00228a21161005b578063b00228a214610119578063bde6fc5714610149578063db7cd6d714610167578063f9bd0f731461019d5761007d565b806306ead22e146100825780633db351cb146100b9578063ae578e41146100e9575b600080fd5b61009c600480360381019061009791906118b1565b6101cd565b6040516100b0989796959493929190611aa1565b60405180910390f35b6100d360048036038101906100ce9190611cb3565b610404565b6040516100e09190611d82565b60405180910390f35b61010360048036038101906100fe9190611cb3565b610703565b6040516101109190611d82565b60405180910390f35b610133600480360381019061012e9190611da4565b610ae0565b6040516101409190611f40565b60405180910390f35b610151610dc5565b60405161015e91906120e2565b60405180910390f35b610181600480360381019061017c9190611da4565b6110cc565b6040516101949796959493929190612104565b60405180910390f35b6101b760048036038101906101b29190612188565b6113e8565b6040516101c49190611d82565b60405180910390f35b600181815481106101dd57600080fd5b906000526020600020906005020160009150905080600001549080600101805461020690612213565b80601f016020809104026020016040519081016040528092919081815260200182805461023290612213565b801561027f5780601f106102545761010080835404028352916020019161027f565b820191906000526020600020905b81548152906001019060200180831161026257829003601f168201915b50505050509080600201805461029490612213565b80601f01602080910402602001604051908101604052809291908181526020018280546102c090612213565b801561030d5780601f106102e25761010080835404028352916020019161030d565b820191906000526020600020905b8154815290600101906020018083116102f057829003601f168201915b50505050509080600301805461032290612213565b80601f016020809104026020016040519081016040528092919081815260200182805461034e90612213565b801561039b5780601f106103705761010080835404028352916020019161039b565b820191906000526020600020905b81548152906001019060200180831161037e57829003601f168201915b5050505050908060040160009054906101000a900460ff16908060040160019054906101000a900460ff16908060040160029054906101000a900460ff16908060040160039054906101000a900473ffffffffffffffffffffffffffffffffffffffff16905088565b6060600080876040516104179190612281565b908152602001604051809103902090508581600201908051906020019061043f9291906116b6565b50848160030190805190602001906104589291906116b6565b5060008160040160006101000a81548160ff021916908315150217905550838160040160016101000a81548160ff0219169083600281111561049d5761049c6119a1565b5b0217905550828160040160026101000a81548160ff021916908360038111156104c9576104c86119a1565b5b0217905550338160040160036101000a81548173ffffffffffffffffffffffffffffffffffffffff021916908373ffffffffffffffffffffffffffffffffffffffff160217905550600181908060018154018082558091505060019003906000526020600020906005020160009091909190915060008201548160000155600182018160010190805461055b90612213565b61056692919061173c565b50600282018160020190805461057b90612213565b61058692919061173c565b50600382018160030190805461059b90612213565b6105a692919061173c565b506004820160009054906101000a900460ff168160040160006101000a81548160ff0219169083151502179055506004820160019054906101000a900460ff168160040160016101000a81548160ff0219169083600281111561060c5761060b6119a1565b5b02179055506004820160029054906101000a900460ff168160040160026101000a81548160ff02191690836003811115610649576106486119a1565b5b02179055506004820160039054906101000a900473ffffffffffffffffffffffffffffffffffffffff168160040160036101000a81548173ffffffffffffffffffffffffffffffffffffffff021916908373ffffffffffffffffffffffffffffffffffffffff16021790555050507ff5a0ac16cee10fe6b04f047a3ecc76fe90810a82b64436fb025b4e6c6506dc3387878787876040516106ee959493929190612298565b60405180910390a18691505095945050505050565b606060006001805490509050808061071a9061232f565b9150506107256117c9565b818160000181815250508781602001819052508681604001819052508581606001819052506000816080019015159081151581525050848160a001906002811115610773576107726119a1565b5b90816002811115610787576107866119a1565b5b81525050838160c0019060038111156107a3576107a26119a1565b5b908160038111156107b7576107b66119a1565b5b81525050338160e0019073ffffffffffffffffffffffffffffffffffffffff16908173ffffffffffffffffffffffffffffffffffffffff168152505060018190806001815401808255809150506001900390600052602060002090600502016000909190919091506000820151816000015560208201518160010190805190602001906108459291906116b6565b5060408201518160020190805190602001906108629291906116b6565b50606082015181600301908051906020019061087f9291906116b6565b5060808201518160040160006101000a81548160ff02191690831515021790555060a08201518160040160016101000a81548160ff021916908360028111156108cb576108ca6119a1565b5b021790555060c08201518160040160026101000a81548160ff021916908360038111156108fb576108fa6119a1565b5b021790555060e08201518160040160036101000a81548173ffffffffffffffffffffffffffffffffffffffff021916908373ffffffffffffffffffffffffffffffffffffffff16021790555050508060008960405161095a9190612281565b908152602001604051809103902060008201518160000155602082015181600101908051906020019061098e9291906116b6565b5060408201518160020190805190602001906109ab9291906116b6565b5060608201518160030190805190602001906109c89291906116b6565b5060808201518160040160006101000a81548160ff02191690831515021790555060a08201518160040160016101000a81548160ff02191690836002811115610a1457610a136119a1565b5b021790555060c08201518160040160026101000a81548160ff02191690836003811115610a4457610a436119a1565b5b021790555060e08201518160040160036101000a81548173ffffffffffffffffffffffffffffffffffffffff021916908373ffffffffffffffffffffffffffffffffffffffff1602179055509050507ff5a0ac16cee10fe6b04f047a3ecc76fe90810a82b64436fb025b4e6c6506dc338888888888604051610aca959493929190612298565b60405180910390a1879250505095945050505050565b610ae86117c9565b60008083604051610af99190612281565b90815260200160405180910390206040518061010001604052908160008201548152602001600182018054610b2d90612213565b80601f0160208091040260200160405190810160405280929190818152602001828054610b5990612213565b8015610ba65780601f10610b7b57610100808354040283529160200191610ba6565b820191906000526020600020905b815481529060010190602001808311610b8957829003601f168201915b50505050508152602001600282018054610bbf90612213565b80601f0160208091040260200160405190810160405280929190818152602001828054610beb90612213565b8015610c385780601f10610c0d57610100808354040283529160200191610c38565b820191906000526020600020905b815481529060010190602001808311610c1b57829003601f168201915b50505050508152602001600382018054610c5190612213565b80601f0160208091040260200160405190810160405280929190818152602001828054610c7d90612213565b8015610cca5780601f10610c9f57610100808354040283529160200191610cca565b820191906000526020600020905b815481529060010190602001808311610cad57829003601f168201915b505050505081526020016004820160009054906101000a900460ff161515151581526020016004820160019054906101000a900460ff166002811115610d1357610d126119a1565b5b6002811115610d2557610d246119a1565b5b81526020016004820160029054906101000a900460ff166003811115610d4e57610d4d6119a1565b5b6003811115610d6057610d5f6119a1565b5b81526020016004820160039054906101000a900473ffffffffffffffffffffffffffffffffffffffff1673ffffffffffffffffffffffffffffffffffffffff1673ffffffffffffffffffffffffffffffffffffffff1681525050905080915050919050565b60606001805480602002602001604051908101604052809291908181526020016000905b828210156110c357838290600052602060002090600502016040518061010001604052908160008201548152602001600182018054610e2790612213565b80601f0160208091040260200160405190810160405280929190818152602001828054610e5390612213565b8015610ea05780601f10610e7557610100808354040283529160200191610ea0565b820191906000526020600020905b815481529060010190602001808311610e8357829003601f168201915b50505050508152602001600282018054610eb990612213565b80601f0160208091040260200160405190810160405280929190818152602001828054610ee590612213565b8015610f325780601f10610f0757610100808354040283529160200191610f32565b820191906000526020600020905b815481529060010190602001808311610f1557829003601f168201915b50505050508152602001600382018054610f4b90612213565b80601f0160208091040260200160405190810160405280929190818152602001828054610f7790612213565b8015610fc45780601f10610f9957610100808354040283529160200191610fc4565b820191906000526020600020905b815481529060010190602001808311610fa757829003601f168201915b505050505081526020016004820160009054906101000a900460ff161515151581526020016004820160019054906101000a900460ff16600281111561100d5761100c6119a1565b5b600281111561101f5761101e6119a1565b5b81526020016004820160029054906101000a900460ff166003811115611048576110476119a1565b5b600381111561105a576110596119a1565b5b81526020016004820160039054906101000a900473ffffffffffffffffffffffffffffffffffffffff1673ffffffffffffffffffffffffffffffffffffffff1673ffffffffffffffffffffffffffffffffffffffff168152505081526020019060010190610de9565b50505050905090565b6060806060600080600080600080896040516110e89190612281565b9081526020016040518091039020604051806101000160405290816000820154815260200160018201805461111c90612213565b80601f016020809104026020016040519081016040528092919081815260200182805461114890612213565b80156111955780601f1061116a57610100808354040283529160200191611195565b820191906000526020600020905b81548152906001019060200180831161117857829003601f168201915b505050505081526020016002820180546111ae90612213565b80601f01602080910402602001604051908101604052809291908181526020018280546111da90612213565b80156112275780601f106111fc57610100808354040283529160200191611227565b820191906000526020600020905b81548152906001019060200180831161120a57829003601f168201915b5050505050815260200160038201805461124090612213565b80601f016020809104026020016040519081016040528092919081815260200182805461126c90612213565b80156112b95780601f1061128e576101008083540402835291602001916112b9565b820191906000526020600020905b81548152906001019060200180831161129c57829003601f168201915b505050505081526020016004820160009054906101000a900460ff161515151581526020016004820160019054906101000a900460ff166002811115611302576113016119a1565b5b6002811115611314576113136119a1565b5b81526020016004820160029054906101000a900460ff16600381111561133d5761133c6119a1565b5b600381111561134f5761134e6119a1565b5b81526020016004820160039054906101000a900473ffffffffffffffffffffffffffffffffffffffff1673ffffffffffffffffffffffffffffffffffffffff1673ffffffffffffffffffffffffffffffffffffffff1681525050905080602001518160400151826060015183608001518460a001518560c001518660e00151975097509750975097509750975050919395979092949650565b6060600080846040516113fb9190612281565b90815260200160405180910390209050828160040160016101000a81548160ff02191690836002811115611432576114316119a1565b5b0217905550338160040160036101000a81548173ffffffffffffffffffffffffffffffffffffffff021916908373ffffffffffffffffffffffffffffffffffffffff16021790555060018190806001815401808255809150506001900390600052602060002090600502016000909190919091506000820154816000015560018201816001019080546114c490612213565b6114cf92919061173c565b5060028201816002019080546114e490612213565b6114ef92919061173c565b50600382018160030190805461150490612213565b61150f92919061173c565b506004820160009054906101000a900460ff168160040160006101000a81548160ff0219169083151502179055506004820160019054906101000a900460ff168160040160016101000a81548160ff02191690836002811115611575576115746119a1565b5b02179055506004820160029054906101000a900460ff168160040160026101000a81548160ff021916908360038111156115b2576115b16119a1565b5b02179055506004820160039054906101000a900473ffffffffffffffffffffffffffffffffffffffff168160040160036101000a81548173ffffffffffffffffffffffffffffffffffffffff021916908373ffffffffffffffffffffffffffffffffffffffff160217905550505080600101805461162f90612213565b80601f016020809104026020016040519081016040528092919081815260200182805461165b90612213565b80156116a85780601f1061167d576101008083540402835291602001916116a8565b820191906000526020600020905b81548152906001019060200180831161168b57829003601f168201915b505050505091505092915050565b8280546116c290612213565b90600052602060002090601f0160209004810192826116e4576000855561172b565b82601f106116fd57805160ff191683800117855561172b565b8280016001018555821561172b579182015b8281111561172a57825182559160200191906001019061170f565b5b509050611738919061184a565b5090565b82805461174890612213565b90600052602060002090601f01602090048101928261176a57600085556117b8565b82601f1061177b57805485556117b8565b828001600101855582156117b857600052602060002091601f016020900482015b828111156117b757825482559160010191906001019061179c565b5b5090506117c5919061184a565b5090565b604051806101000160405280600081526020016060815260200160608152602001606081526020016000151581526020016000600281111561180e5761180d6119a1565b5b815260200160006003811115611827576118266119a1565b5b8152602001600073ffffffffffffffffffffffffffffffffffffffff1681525090565b5b8082111561186357600081600090555060010161184b565b5090565b6000604051905090565b600080fd5b600080fd5b6000819050919050565b61188e8161187b565b811461189957600080fd5b50565b6000813590506118ab81611885565b92915050565b6000602082840312156118c7576118c6611871565b5b60006118d58482850161189c565b91505092915050565b6118e78161187b565b82525050565b600081519050919050565b600082825260208201905092915050565b60005b8381101561192757808201518184015260208101905061190c565b83811115611936576000848401525b50505050565b6000601f19601f8301169050919050565b6000611958826118ed565b61196281856118f8565b9350611972818560208601611909565b61197b8161193c565b840191505092915050565b60008115159050919050565b61199b81611986565b82525050565b7f4e487b7100000000000000000000000000000000000000000000000000000000600052602160045260246000fd5b600381106119e1576119e06119a1565b5b50565b60008190506119f2826119d0565b919050565b6000611a02826119e4565b9050919050565b611a12816119f7565b82525050565b60048110611a2957611a286119a1565b5b50565b6000819050611a3a82611a18565b919050565b6000611a4a82611a2c565b9050919050565b611a5a81611a3f565b82525050565b600073ffffffffffffffffffffffffffffffffffffffff82169050919050565b6000611a8b82611a60565b9050919050565b611a9b81611a80565b82525050565b600061010082019050611ab7600083018b6118de565b8181036020830152611ac9818a61194d565b90508181036040830152611add818961194d565b90508181036060830152611af1818861194d565b9050611b006080830187611992565b611b0d60a0830186611a09565b611b1a60c0830185611a51565b611b2760e0830184611a92565b9998505050505050505050565b600080fd5b600080fd5b7f4e487b7100000000000000000000000000000000000000000000000000000000600052604160045260246000fd5b611b768261193c565b810181811067ffffffffffffffff82111715611b9557611b94611b3e565b5b80604052505050565b6000611ba8611867565b9050611bb48282611b6d565b919050565b600067ffffffffffffffff821115611bd457611bd3611b3e565b5b611bdd8261193c565b9050602081019050919050565b82818337600083830152505050565b6000611c0c611c0784611bb9565b611b9e565b905082815260208101848484011115611c2857611c27611b39565b5b611c33848285611bea565b509392505050565b600082601f830112611c5057611c4f611b34565b5b8135611c60848260208601611bf9565b91505092915050565b60038110611c7657600080fd5b50565b600081359050611c8881611c69565b92915050565b60048110611c9b57600080fd5b50565b600081359050611cad81611c8e565b92915050565b600080600080600060a08688031215611ccf57611cce611871565b5b600086013567ffffffffffffffff811115611ced57611cec611876565b5b611cf988828901611c3b565b955050602086013567ffffffffffffffff811115611d1a57611d19611876565b5b611d2688828901611c3b565b945050604086013567ffffffffffffffff811115611d4757611d46611876565b5b611d5388828901611c3b565b9350506060611d6488828901611c79565b9250506080611d7588828901611c9e565b9150509295509295909350565b60006020820190508181036000830152611d9c818461194d565b905092915050565b600060208284031215611dba57611db9611871565b5b600082013567ffffffffffffffff811115611dd857611dd7611876565b5b611de484828501611c3b565b91505092915050565b611df68161187b565b82525050565b600082825260208201905092915050565b6000611e18826118ed565b611e228185611dfc565b9350611e32818560208601611909565b611e3b8161193c565b840191505092915050565b611e4f81611986565b82525050565b611e5e816119f7565b82525050565b611e6d81611a3f565b82525050565b611e7c81611a80565b82525050565b600061010083016000830151611e9b6000860182611ded565b5060208301518482036020860152611eb38282611e0d565b91505060408301518482036040860152611ecd8282611e0d565b91505060608301518482036060860152611ee78282611e0d565b9150506080830151611efc6080860182611e46565b5060a0830151611f0f60a0860182611e55565b5060c0830151611f2260c0860182611e64565b5060e0830151611f3560e0860182611e73565b508091505092915050565b60006020820190508181036000830152611f5a8184611e82565b905092915050565b600081519050919050565b600082825260208201905092915050565b6000819050602082019050919050565b600061010083016000830151611fa76000860182611ded565b5060208301518482036020860152611fbf8282611e0d565b91505060408301518482036040860152611fd98282611e0d565b91505060608301518482036060860152611ff38282611e0d565b91505060808301516120086080860182611e46565b5060a083015161201b60a0860182611e55565b5060c083015161202e60c0860182611e64565b5060e083015161204160e0860182611e73565b508091505092915050565b60006120588383611f8e565b905092915050565b6000602082019050919050565b600061207882611f62565b6120828185611f6d565b93508360208202850161209485611f7e565b8060005b858110156120d057848403895281516120b1858261204c565b94506120bc83612060565b925060208a01995050600181019050612098565b50829750879550505050505092915050565b600060208201905081810360008301526120fc818461206d565b905092915050565b600060e082019050818103600083015261211e818a61194d565b90508181036020830152612132818961194d565b90508181036040830152612146818861194d565b90506121556060830187611992565b6121626080830186611a09565b61216f60a0830185611a51565b61217c60c0830184611a92565b98975050505050505050565b6000806040838503121561219f5761219e611871565b5b600083013567ffffffffffffffff8111156121bd576121bc611876565b5b6121c985828601611c3b565b92505060206121da85828601611c79565b9150509250929050565b7f4e487b7100000000000000000000000000000000000000000000000000000000600052602260045260246000fd5b6000600282049050600182168061222b57607f821691505b6020821081141561223f5761223e6121e4565b5b50919050565b600081905092915050565b600061225b826118ed565b6122658185612245565b9350612275818560208601611909565b80840191505092915050565b600061228d8284612250565b915081905092915050565b600060a08201905081810360008301526122b2818861194d565b905081810360208301526122c6818761194d565b905081810360408301526122da818661194d565b90506122e96060830185611a09565b6122f66080830184611a51565b9695505050505050565b7f4e487b7100000000000000000000000000000000000000000000000000000000600052601160045260246000fd5b600061233a8261187b565b91507fffffffffffffffffffffffffffffffffffffffffffffffffffffffffffffffff82141561236d5761236c612300565b5b60018201905091905056fea2646970667358221220a219785f9e506cdbf4989fdebe48c537f9b5d69412e4347aadd60575492ed52164736f6c634300080a0033",
  "immutableReferences": {},
  "source": "// SPDX-License-Identifier: MIT\npragma solidity >=0.4.17 <0.9.0;\n\ncontract Student {\n    constructor() {}\n\n    // Returns uint\n    // BS_COMPUTER_ENGINEERING    - 0\n    // BS_COMPUTER_SCIENCE        - 1\n    // BS_INFORMATION_TECHNOLOGY  - 2\n    enum Course {\n        BS_COMPUTER_ENGINEERING,\n        BS_COMPUTER_SCIENCE,\n        BS_INFORMATION_TECHNOLOGY\n    }\n\n    // Returns uint\n    // Pending  - 0\n    // Accepted - 1\n    // Rejected - 2\n    // Canceled - 3\n    enum Status {\n        Pending,\n        Accepted,\n        Rejected,\n        Canceled\n    }\n\n    struct StudentInfo {\n        uint id;\n        string studentId;\n        string firstName;\n        string lastName;\n        bool isPassed;\n        Course course;\n        Status status;\n        address sender;\n    }\n\n    mapping(string => StudentInfo) studentInfo;\n\n    StudentInfo[] public students;\n\n    event StudentEvent(\n        string studentId,\n        string firstName,\n        string lastName,\n        Course course,\n        Status status\n    );\n\n    function create(\n      string memory _studentId,\n      string memory _firstName,\n      string memory _lastName,\n      Course _course,\n      Status _status\n    ) public returns (string memory){\n      uint _id = students.length;\n      _id++;\n\n      StudentInfo memory student;\n\n      student.id = _id;\n      student.studentId = _studentId;\n      student.firstName = _firstName;\n      student.lastName = _lastName;\n      student.isPassed = false;\n      student.course = _course;\n      student.status = _status;\n      student.sender = address(msg.sender);\n\n      students.push(student);\n      // add to the mapping by  studentId\n      studentInfo[_studentId] = student;\n\n      emit StudentEvent(\n        _studentId,\n        _firstName,\n        _lastName,\n        _course,\n        _status\n      );\n\n      return _studentId;\n    }\n\n    function update(\n      string memory _studentId,\n      string memory _firstName,\n      string memory _lastName,\n      Course _course,\n      Status _status\n    ) public \n    returns (string memory){\n      StudentInfo storage student = studentInfo[_studentId];\n\n      student.firstName = _firstName;\n      student.lastName = _lastName;\n      student.isPassed = false;\n      student.course = _course;\n      student.status = _status;\n      student.sender = address(msg.sender);\n\n      students.push(student);\n\n      emit StudentEvent(\n        _studentId,\n        _firstName,\n        _lastName,\n        _course,\n        _status\n      );\n\n      return _studentId;\n    }\n\n    function updateCourse(\n      string memory _studentId,\n      Course _course\n    ) public \n    returns (string memory){\n      StudentInfo storage student = studentInfo[_studentId];\n\n      student.course = _course;\n      student.sender = address(msg.sender);\n\n      students.push(student);\n\n      return student.studentId;\n    }\n\n    function getStudentInfoByStudentId(string memory _studentId)\n      public view\n      returns (\n        string memory studentId,\n        string memory firstName,\n        string memory lastName,\n        bool isPassed,\n        Course course,\n        Status status,\n        address sender\n      ) {\n        StudentInfo memory student = studentInfo[_studentId];\n        return (\n          student.studentId,\n          student.firstName,\n          student.lastName,\n          student.isPassed,\n          student.course,\n          student.status,\n          student.sender\n        );\n      }\n\n      function getStudentReturnStruct(string memory _studentId)\n        public view \n        returns (StudentInfo memory) {\n          StudentInfo memory student = studentInfo[_studentId];\n          return (student);\n      }\n\n      function allStudents() public view returns(StudentInfo[] memory) {\n        return students;\n    }\n}",
  "sourcePath": "C:\\XianD\\repos\\xian\\Ether101\\contracts\\Student.sol",
  "compiler": {
    "name": "solc",
    "version": "0.8.10+commit.fc410830.Emscripten.clang"
  },
  "schemaVersion": "3.4.3",
  "updatedAt": "2021-12-20T00:20:48.096Z",
  "devdoc": {
    "kind": "dev",
    "methods": {},
    "version": 1
  },
  "userdoc": {
    "kind": "user",
    "methods": {},
    "version": 1
  }
}